No.     Time        Source                Destination           Protocol Info
     19 10.803222   HonHaiPr_1a:4d:cc     Broadcast             ARP      Who has 192.168.1.1?  Tell 192.168.1.13

Frame 19 (42 bytes on wire, 42 bytes captured)
    Arrival Time: Nov 22, 2013 23:34:25.652057000
    [Time delta from previous captured frame: 0.972327000 seconds]
    [Time delta from previous displayed frame: 10.803222000 seconds]
    [Time since reference or first frame: 10.803222000 seconds]
    Frame Number: 19
    Frame Length: 42 bytes
    Capture Length: 42 bytes
    [Frame is marked: True]
    [Protocols in frame: eth:arp]
    [Coloring Rule Name: ARP]
    [Coloring Rule String: arp]
Ethernet II, Src: HonHaiPr_1a:4d:cc (00:23:4d:1a:4d:cc), Dst: Broadcast (ff:ff:ff:ff:ff:ff)
    Destination: Broadcast (ff:ff:ff:ff:ff:ff)
        Address: Broadcast (ff:ff:ff:ff:ff:ff)
        .... ...1 .... .... .... .... = IG bit: Group address (multicast/broadcast)
        .... ..1. .... .... .... .... = LG bit: Locally administered address (this is NOT the factory default)
    Source: HonHaiPr_1a:4d:cc (00:23:4d:1a:4d:cc)
        Address: HonHaiPr_1a:4d:cc (00:23:4d:1a:4d:cc)
        .... ...0 .... .... .... .... = IG bit: Individual address (unicast)
        .... ..0. .... .... .... .... = LG bit: Globally unique address (factory default)
    Type: ARP (0x0806)
Address Resolution Protocol (request)
    Hardware type: Ethernet (0x0001)
    Protocol type: IP (0x0800)
    Hardware size: 6
    Protocol size: 4
    Opcode: request (0x0001)
    [Is gratuitous: False]
    Sender MAC address: HonHaiPr_1a:4d:cc (00:23:4d:1a:4d:cc)
    Sender IP address: 192.168.1.13 (192.168.1.13)
    Target MAC address: 00:00:00_00:00:00 (00:00:00:00:00:00)
    Target IP address: 192.168.1.1 (192.168.1.1)

0000  ff ff ff ff ff ff 00 23 4d 1a 4d cc 08 06 00 01   .......#M.M.....
0010  08 00 06 04 00 01 00 23 4d 1a 4d cc c0 a8 01 0d   .......#M.M.....
0020  00 00 00 00 00 00 c0 a8 01 01                     ..........

No.     Time        Source                Destination           Protocol Info
     20 10.815678   00:7f:28:e4:be:12     HonHaiPr_1a:4d:cc     ARP      192.168.1.1 is at 00:7f:28:e4:be:12

Frame 20 (42 bytes on wire, 42 bytes captured)
    Arrival Time: Nov 22, 2013 23:34:25.664513000
    [Time delta from previous captured frame: 0.012456000 seconds]
    [Time delta from previous displayed frame: 0.012456000 seconds]
    [Time since reference or first frame: 10.815678000 seconds]
    Frame Number: 20
    Frame Length: 42 bytes
    Capture Length: 42 bytes
    [Frame is marked: True]
    [Protocols in frame: eth:arp]
    [Coloring Rule Name: ARP]
    [Coloring Rule String: arp]
Ethernet II, Src: 00:7f:28:e4:be:12 (00:7f:28:e4:be:12), Dst: HonHaiPr_1a:4d:cc (00:23:4d:1a:4d:cc)
    Destination: HonHaiPr_1a:4d:cc (00:23:4d:1a:4d:cc)
        Address: HonHaiPr_1a:4d:cc (00:23:4d:1a:4d:cc)
        .... ...0 .... .... .... .... = IG bit: Individual address (unicast)
        .... ..0. .... .... .... .... = LG bit: Globally unique address (factory default)
    Source: 00:7f:28:e4:be:12 (00:7f:28:e4:be:12)
        Address: 00:7f:28:e4:be:12 (00:7f:28:e4:be:12)
        .... ...0 .... .... .... .... = IG bit: Individual address (unicast)
        .... ..0. .... .... .... .... = LG bit: Globally unique address (factory default)
    Type: ARP (0x0806)
Address Resolution Protocol (reply)
    Hardware type: Ethernet (0x0001)
    Protocol type: IP (0x0800)
    Hardware size: 6
    Protocol size: 4
    Opcode: reply (0x0002)
    [Is gratuitous: False]
    Sender MAC address: 00:7f:28:e4:be:12 (00:7f:28:e4:be:12)
    Sender IP address: 192.168.1.1 (192.168.1.1)
    Target MAC address: HonHaiPr_1a:4d:cc (00:23:4d:1a:4d:cc)
    Target IP address: 192.168.1.13 (192.168.1.13)

0000  00 23 4d 1a 4d cc 00 7f 28 e4 be 12 08 06 00 01   .#M.M...(.......
0010  08 00 06 04 00 02 00 7f 28 e4 be 12 c0 a8 01 01   ........(.......
0020  00 23 4d 1a 4d cc c0 a8 01 0d                     .#M.M.....

No.     Time        Source                Destination           Protocol Info
     21 10.815697   192.168.1.13          192.168.1.1           DNS      Standard query A ubuntu.com

Frame 21 (70 bytes on wire, 70 bytes captured)
    Arrival Time: Nov 22, 2013 23:34:25.664532000
    [Time delta from previous captured frame: 0.000019000 seconds]
    [Time delta from previous displayed frame: 0.000019000 seconds]
    [Time since reference or first frame: 10.815697000 seconds]
    Frame Number: 21
    Frame Length: 70 bytes
    Capture Length: 70 bytes
    [Frame is marked: True]
    [Protocols in frame: eth:ip:udp:dns]
    [Coloring Rule Name: UDP]
    [Coloring Rule String: udp]
Ethernet II, Src: HonHaiPr_1a:4d:cc (00:23:4d:1a:4d:cc), Dst: 00:7f:28:e4:be:12 (00:7f:28:e4:be:12)
    Destination: 00:7f:28:e4:be:12 (00:7f:28:e4:be:12)
        Address: 00:7f:28:e4:be:12 (00:7f:28:e4:be:12)
        .... ...0 .... .... .... .... = IG bit: Individual address (unicast)
        .... ..0. .... .... .... .... = LG bit: Globally unique address (factory default)
    Source: HonHaiPr_1a:4d:cc (00:23:4d:1a:4d:cc)
        Address: HonHaiPr_1a:4d:cc (00:23:4d:1a:4d:cc)
        .... ...0 .... .... .... .... = IG bit: Individual address (unicast)
        .... ..0. .... .... .... .... = LG bit: Globally unique address (factory default)
    Type: IP (0x0800)
Internet Protocol, Src: 192.168.1.13 (192.168.1.13), Dst: 192.168.1.1 (192.168.1.1)
    Version: 4
    Header length: 20 bytes
    Differentiated Services Field: 0x00 (DSCP 0x00: Default; ECN: 0x00)
        0000 00.. = Differentiated Services Codepoint: Default (0x00)
        .... ..0. = ECN-Capable Transport (ECT): 0
        .... ...0 = ECN-CE: 0
    Total Length: 56
    Identification: 0x1469 (5225)
    Flags: 0x00
        0.. = Reserved bit: Not Set
        .0. = Don't fragment: Not Set
        ..0 = More fragments: Not Set
    Fragment offset: 0
    Time to live: 64
    Protocol: UDP (0x11)
    Header checksum: 0xe2ed [correct]
        [Good: True]
        [Bad : False]
    Source: 192.168.1.13 (192.168.1.13)
    Destination: 192.168.1.1 (192.168.1.1)
User Datagram Protocol, Src Port: 40438 (40438), Dst Port: domain (53)
    Source port: 40438 (40438)
    Destination port: domain (53)
    Length: 36
    Checksum: 0xdcc7 [validation disabled]
        [Good Checksum: False]
        [Bad Checksum: False]
Domain Name System (query)
    [Response In: 22]
    Transaction ID: 0xe37e
    Flags: 0x0100 (Standard query)
        0... .... .... .... = Response: Message is a query
        .000 0... .... .... = Opcode: Standard query (0)
        .... ..0. .... .... = Truncated: Message is not truncated
        .... ...1 .... .... = Recursion desired: Do query recursively
        .... .... .0.. .... = Z: reserved (0)
        .... .... ...0 .... = Non-authenticated data OK: Non-authenticated data is unacceptable
    Questions: 1
    Answer RRs: 0
    Authority RRs: 0
    Additional RRs: 0
    Queries
        ubuntu.com: type A, class IN
            Name: ubuntu.com
            Type: A (Host address)
            Class: IN (0x0001)

0000  00 7f 28 e4 be 12 00 23 4d 1a 4d cc 08 00 45 00   ..(....#M.M...E.
0010  00 38 14 69 00 00 40 11 e2 ed c0 a8 01 0d c0 a8   .8.i..@.........
0020  01 01 9d f6 00 35 00 24 dc c7 e3 7e 01 00 00 01   .....5.$...~....
0030  00 00 00 00 00 00 06 75 62 75 6e 74 75 03 63 6f   .......ubuntu.co
0040  6d 00 00 01 00 01                                 m.....

No.     Time        Source                Destination           Protocol Info
     22 10.860933   192.168.1.1           192.168.1.13          DNS      Standard query response A 91.189.94.156

Frame 22 (86 bytes on wire, 86 bytes captured)
    Arrival Time: Nov 22, 2013 23:34:25.709768000
    [Time delta from previous captured frame: 0.045236000 seconds]
    [Time delta from previous displayed frame: 0.045236000 seconds]
    [Time since reference or first frame: 10.860933000 seconds]
    Frame Number: 22
    Frame Length: 86 bytes
    Capture Length: 86 bytes
    [Frame is marked: True]
    [Protocols in frame: eth:ip:udp:dns]
    [Coloring Rule Name: UDP]
    [Coloring Rule String: udp]
Ethernet II, Src: 00:7f:28:e4:be:12 (00:7f:28:e4:be:12), Dst: HonHaiPr_1a:4d:cc (00:23:4d:1a:4d:cc)
    Destination: HonHaiPr_1a:4d:cc (00:23:4d:1a:4d:cc)
        Address: HonHaiPr_1a:4d:cc (00:23:4d:1a:4d:cc)
        .... ...0 .... .... .... .... = IG bit: Individual address (unicast)
        .... ..0. .... .... .... .... = LG bit: Globally unique address (factory default)
    Source: 00:7f:28:e4:be:12 (00:7f:28:e4:be:12)
        Address: 00:7f:28:e4:be:12 (00:7f:28:e4:be:12)
        .... ...0 .... .... .... .... = IG bit: Individual address (unicast)
        .... ..0. .... .... .... .... = LG bit: Globally unique address (factory default)
    Type: IP (0x0800)
Internet Protocol, Src: 192.168.1.1 (192.168.1.1), Dst: 192.168.1.13 (192.168.1.13)
    Version: 4
    Header length: 20 bytes
    Differentiated Services Field: 0x00 (DSCP 0x00: Default; ECN: 0x00)
        0000 00.. = Differentiated Services Codepoint: Default (0x00)
        .... ..0. = ECN-Capable Transport (ECT): 0
        .... ...0 = ECN-CE: 0
    Total Length: 72
    Identification: 0x0000 (0)
    Flags: 0x02 (Don't Fragment)
        0.. = Reserved bit: Not Set
        .1. = Don't fragment: Set
        ..0 = More fragments: Not Set
    Fragment offset: 0
    Time to live: 64
    Protocol: UDP (0x11)
    Header checksum: 0xb746 [correct]
        [Good: True]
        [Bad : False]
    Source: 192.168.1.1 (192.168.1.1)
    Destination: 192.168.1.13 (192.168.1.13)
User Datagram Protocol, Src Port: domain (53), Dst Port: 40438 (40438)
    Source port: domain (53)
    Destination port: 40438 (40438)
    Length: 52
    Checksum: 0xdf61 [validation disabled]
        [Good Checksum: False]
        [Bad Checksum: False]
Domain Name System (response)
    [Request In: 21]
    [Time: 0.045236000 seconds]
    Transaction ID: 0xe37e
    Flags: 0x8180 (Standard query response, No error)
        1... .... .... .... = Response: Message is a response
        .000 0... .... .... = Opcode: Standard query (0)
        .... .0.. .... .... = Authoritative: Server is not an authority for domain
        .... ..0. .... .... = Truncated: Message is not truncated
        .... ...1 .... .... = Recursion desired: Do query recursively
        .... .... 1... .... = Recursion available: Server can do recursive queries
        .... .... .0.. .... = Z: reserved (0)
        .... .... ..0. .... = Answer authenticated: Answer/authority portion was not authenticated by the server
        .... .... .... 0000 = Reply code: No error (0)
    Questions: 1
    Answer RRs: 1
    Authority RRs: 0
    Additional RRs: 0
    Queries
        ubuntu.com: type A, class IN
            Name: ubuntu.com
            Type: A (Host address)
            Class: IN (0x0001)
    Answers
        ubuntu.com: type A, class IN, addr 91.189.94.156
            Name: ubuntu.com
            Type: A (Host address)
            Class: IN (0x0001)
            Time to live: 10 minutes
            Data length: 4
            Addr: 91.189.94.156

0000  00 23 4d 1a 4d cc 00 7f 28 e4 be 12 08 00 45 00   .#M.M...(.....E.
0010  00 48 00 00 40 00 40 11 b7 46 c0 a8 01 01 c0 a8   .H..@.@..F......
0020  01 0d 00 35 9d f6 00 34 df 61 e3 7e 81 80 00 01   ...5...4.a.~....
0030  00 01 00 00 00 00 06 75 62 75 6e 74 75 03 63 6f   .......ubuntu.co
0040  6d 00 00 01 00 01 c0 0c 00 01 00 01 00 00 02 58   m..............X
0050  00 04 5b bd 5e 9c                                 ..[.^.

No.     Time        Source                Destination           Protocol Info
     29 15.855011   00:7f:28:e4:be:12     HonHaiPr_1a:4d:cc     ARP      Who has 192.168.1.13?  Tell 192.168.1.1

Frame 29 (42 bytes on wire, 42 bytes captured)
    Arrival Time: Nov 22, 2013 23:34:30.703846000
    [Time delta from previous captured frame: 0.084589000 seconds]
    [Time delta from previous displayed frame: 4.994078000 seconds]
    [Time since reference or first frame: 15.855011000 seconds]
    Frame Number: 29
    Frame Length: 42 bytes
    Capture Length: 42 bytes
    [Frame is marked: True]
    [Protocols in frame: eth:arp]
    [Coloring Rule Name: ARP]
    [Coloring Rule String: arp]
Ethernet II, Src: 00:7f:28:e4:be:12 (00:7f:28:e4:be:12), Dst: HonHaiPr_1a:4d:cc (00:23:4d:1a:4d:cc)
    Destination: HonHaiPr_1a:4d:cc (00:23:4d:1a:4d:cc)
        Address: HonHaiPr_1a:4d:cc (00:23:4d:1a:4d:cc)
        .... ...0 .... .... .... .... = IG bit: Individual address (unicast)
        .... ..0. .... .... .... .... = LG bit: Globally unique address (factory default)
    Source: 00:7f:28:e4:be:12 (00:7f:28:e4:be:12)
        Address: 00:7f:28:e4:be:12 (00:7f:28:e4:be:12)
        .... ...0 .... .... .... .... = IG bit: Individual address (unicast)
        .... ..0. .... .... .... .... = LG bit: Globally unique address (factory default)
    Type: ARP (0x0806)
Address Resolution Protocol (request)
    Hardware type: Ethernet (0x0001)
    Protocol type: IP (0x0800)
    Hardware size: 6
    Protocol size: 4
    Opcode: request (0x0001)
    [Is gratuitous: False]
    Sender MAC address: 00:7f:28:e4:be:12 (00:7f:28:e4:be:12)
    Sender IP address: 192.168.1.1 (192.168.1.1)
    Target MAC address: 00:00:00_00:00:00 (00:00:00:00:00:00)
    Target IP address: 192.168.1.13 (192.168.1.13)

0000  00 23 4d 1a 4d cc 00 7f 28 e4 be 12 08 06 00 01   .#M.M...(.......
0010  08 00 06 04 00 01 00 7f 28 e4 be 12 c0 a8 01 01   ........(.......
0020  00 00 00 00 00 00 c0 a8 01 0d                     ..........

No.     Time        Source                Destination           Protocol Info
     30 15.855045   HonHaiPr_1a:4d:cc     00:7f:28:e4:be:12     ARP      192.168.1.13 is at 00:23:4d:1a:4d:cc

Frame 30 (42 bytes on wire, 42 bytes captured)
    Arrival Time: Nov 22, 2013 23:34:30.703880000
    [Time delta from previous captured frame: 0.000034000 seconds]
    [Time delta from previous displayed frame: 0.000034000 seconds]
    [Time since reference or first frame: 15.855045000 seconds]
    Frame Number: 30
    Frame Length: 42 bytes
    Capture Length: 42 bytes
    [Frame is marked: True]
    [Protocols in frame: eth:arp]
    [Coloring Rule Name: ARP]
    [Coloring Rule String: arp]
Ethernet II, Src: HonHaiPr_1a:4d:cc (00:23:4d:1a:4d:cc), Dst: 00:7f:28:e4:be:12 (00:7f:28:e4:be:12)
    Destination: 00:7f:28:e4:be:12 (00:7f:28:e4:be:12)
        Address: 00:7f:28:e4:be:12 (00:7f:28:e4:be:12)
        .... ...0 .... .... .... .... = IG bit: Individual address (unicast)
        .... ..0. .... .... .... .... = LG bit: Globally unique address (factory default)
    Source: HonHaiPr_1a:4d:cc (00:23:4d:1a:4d:cc)
        Address: HonHaiPr_1a:4d:cc (00:23:4d:1a:4d:cc)
        .... ...0 .... .... .... .... = IG bit: Individual address (unicast)
        .... ..0. .... .... .... .... = LG bit: Globally unique address (factory default)
    Type: ARP (0x0806)
Address Resolution Protocol (reply)
    Hardware type: Ethernet (0x0001)
    Protocol type: IP (0x0800)
    Hardware size: 6
    Protocol size: 4
    Opcode: reply (0x0002)
    [Is gratuitous: False]
    Sender MAC address: HonHaiPr_1a:4d:cc (00:23:4d:1a:4d:cc)
    Sender IP address: 192.168.1.13 (192.168.1.13)
    Target MAC address: 00:7f:28:e4:be:12 (00:7f:28:e4:be:12)
    Target IP address: 192.168.1.1 (192.168.1.1)

0000  00 7f 28 e4 be 12 00 23 4d 1a 4d cc 08 06 00 01   ..(....#M.M.....
0010  08 00 06 04 00 02 00 23 4d 1a 4d cc c0 a8 01 0d   .......#M.M.....
0020  00 7f 28 e4 be 12 c0 a8 01 01                     ..(.......
